:040000008A15002835
:10000800FF00030E8301C7000A08C6008A017008B2
:10001800A4007108A3007208A2007D08A1008B1C2F
:1000280027288B108610C20A64304202031C1E283F
:10003800C515C201101039088E003A08F000F10108
:1000480070088F0010140C1C34280C1040308706E0
:10005800451D2F2886140330FD00FD0B312886101E
:10006800D0308B002408F0002308F1002208F200A9
:100078002108FD0046088A00470E8300FF0E7F0E08
:0200880009006D
:04008A00000008006A
:10008E00083083120313FC002330FD00FD0B4D28B6
:06009E00FC0B4D280800D8
:1000A400103083120313FD00FD0B562800000800D6
:0E00B400F201F101F001F801F3010030080043
:1000C2007B15FB1F6B280130F300F201F101F001F7
:0800D200FA0DF20CFF300800EA
:0800DA00FA1FF21300300800C8
:1000E20083120313F801F9011030FC00710DF80DB1
:1000F200F90D7408F8027508031C750FF90203184C
:1001020089287408F80775080318750FF907031092
:0A011200F00DF10DFC0B772808003A
:10011C00FB14FB1F9828FF30F300F200F100F000F5
:08012C00FA0DF20CFF3008008F
:1001340083120313E201053062020318A82862083F
:100144006107840020308000E20A9D28620861076C
:1001540084008001E20362086107E3000A30F400CE
:10016400F5015F08F0006008F10071207808F000E4
:100174007908F1003030F0076308840070088000CB
:100184000A30F400F5015F08F0006008F100712006
:100194007008DF007108E00000307106031DD428E8
:1001A40000307006031DD728D928E203AD280800C3
:1001B400A0017208031DEF287108F2007008F10015
:1001C400F001A0157208031DEF287108F200F10177
:1001D400A011201672080319FD282008F302031D3C
:1001E400031C01290310F21B0529F00DF10DF20D7A
:1001F400F30BF52801290130FC005A2008290230AC
:0E020400FC00612008290430FC006D20080079
:1002120083120313DF1B0F298512102985165F1B1A
:100222001429051215290516DF1A192985111A290B
:1002320085155F1A1E2905111F2905153E18232948
:10024200051424290510851445208510DF192B2952
:1002520085122C2985165F193029051231290516B8
:10026200DF1835298511362985155F183A290511B8
:100272003B2905153E183F29051440290510851410
:10028200452085103E1C4729472048295220080056
:100292007B14FB1F5429F201FA1FFF30F200F10018
:0A02A200F000FA0DF20CFF30080026
:0E02AC008312031338088A0037088200080006
:1002BA006F29803083120313D6008229C030D600FA
:1002CA0082299430D6008229D430D60082298030FF
:1002DA00D6008229831203135608013A03195E29AC
:1002EA005608023A031963295608033A031966297C
:1002FA005608043A031969296C295703F00056086D
:10030A00F0077008D6003E147008DF0009213E107D
:0A031A005808DF0009213E14080016
:10032400831203137008F8007108F000F101F20160
:10033400F301FB01FC019630F300FA01F01FA82938
:10034400F809F009F80A0319F00AFA177008F1001D
:0C0354007808F000F801F201DA2008003F
:1003600083120313F2010730F30080307306F000AC
:100370008030003A7002031CE02907150230FC00AF
:100380004B30FD00FD0BC229FC0BC229871DD5296E
:100390007308F1000130F00071080319D329F00D42
:1003A0007010FF3ECD297008F20407110230FC00E6
:1003B0004B30FD00FD0BDA29FC0BDA29F303B529DC
:0603C0007208F0000800C5
:0C03C600831203139B011D129D120800FE
:1003D20083120313560803178D00031357080317DC
:1003E2008F0083168C170C140000000083120E0875
:0E03F200F100F0010C08F0040030F1040800E6
:1004000083120313FB01FA01F9018030F800F10CAB
:10041000F00C031C142A7408F90775080318750FEB
:10042000FA070318FB0A0310F01F1C2A7408FA07C6
:1004300075080318750FFB07FB0CFA0CF90CF80C88
:10044000031C072A7B08F3007A08F2007908F10000
:060450007808F00008002E
:1004560083120313DB01DC015608DD005708DE00BA
:1004660080305706F00080307002031D3C2A0030B1
:10047600560203184A2A0130DB000030DC00560819
:10048600003CDD005708031C013EDE01DE025D086C
:10049600DF005E08E0005808E1009A200630D90027
:1004A6000030DA005A08003C031D5B2A5908003C5C
:1004B6000318762A59085807F20001305902F0004D
:1004C6000030031C013E5A02F100700858078400F0
:1004D6000008F00072088400700880000130D9021C
:1004E600031CDA03552A58088400203080005B0874
:1004F6005C040319942AD901DA01590858078400C3
:100506000008203A031D8B2AD90A0319DA0A802A21
:100516000130D902031CDA035908580784002D302C
:040526008000080049
:10052A0083120313FB017308031D77080319EC2ACE
:10053A0072087606FA007708F3077E30031CA92AA8
:10054A00F3020318EF2AAC2AF302031CF22A7208F8
:10055A00F8007108FC007008FD00F817F617031080
:10056A00F201F101F0011830A0007D1CC62A7408BE
:10057A00F00775080318750FF10776080318760F48
:10058A00F207F20CF10CF00CF80CFC0CFD0C031049
:10059A00A00BBA2AF21BD62AF80DF00DF10DF20DB6
:1005AA00F3037B1B701CE82AF81FE82AF00A0319D8
:1005BA00F10A0319F20A031DE82AF20CF10CF00CF5
:1005CA00F30A0319EF2AFA1FF2130030F42A013052
:1005DA005A20F42A02308E20F42A043061200000C6
:0205EA00080007
:1005EC00831603138510051005118511051285124C
:1005FC0083128510051085120512851105114720EF
:10060C004720472085150515851445208510472062
:10061C0085144520851047208514452085104720DA
:10062C00051185144520851047208514452085101B
:10063C0085118516851445208510472085120515D2
:10064C0085144520851005118514452085104720FB
:10065C0085144520851005158514452085104720E7
:10066C00051185144520851085160516851505156B
:0C067C0085144520851047203E1408001E
:1006880083120313FB0173080319812B7208FA0004
:10069800F2178E30F302F31F842BF309F30A0830A4
:1006A8007302031C672BF300F10D7208F100F201CD
:1006B80008307302031C672BF300F10DF101730876
:1006C800031D03106F2B730803196F2B0310F20C13
:1006D800F10CF30B6A2B7B1B711C792B031C792BF8
:1006E800F10A0319F20AF21B902BFA1F932BF20955
:1006F800F109F10A0319F20A932BF201F101932B84
:100708007B14FB1F962BF201FA1F962BFF30F20089
:10071800F100FA0DF20C962B0130FC00982B0030FA
:10072800FC00982BFF30FC00FC0803199C2B492186
:0A0738007108F0007208F1000800DB
:10074200831203134A0803178D0083168C130C14AB
:0807520083120C08F0000800FE
:10075A0083160313871483121211F0309D050800C3
:10076A0056218A110A128000840AB70A0319B80AA4
:08077A00F003031DB52B08007C
:100782008312031307100230FC004B30FD00FD0BF7
:10079200C82BFC0BC82BCA01CB01B0217008CA00C0
:1007A200CB014A08CB00CA01B0210030F1004A084F
:1007B200F0044B08F1047008CA007108CB0007145A
:1007C20004307005F3007108F4000030F40573087A
:1007D200F0007408F100F10CF00CF113711BF11729
:1007E200F10CF00CF113711BF1177008710403196D
:1007F200FF2BFF30F000FF30F1001E2C0330F2001F
:100802004A08F0004B08F100720803190F2CF10C92
:10081200F00CF113711BF117FF3E062C7008CA0091
:100822007108CB0092210030F4000030F500003056
:0C083200F6007D30F700952244230800FA
:10083E00831603178C1C252C00001F2C8312031308
:10084E004A0803178D0003134B0803178C008316F9
:10085E008C130C150B08F0008B1355308D00AA303D
:10086E008D008C14F01B3D2C8B133E2C8B170C1112
:02087E00080070
:10088000033083120313CB024C08D6004D08D70067
:100890004F30D8002B220230CE004E08053C031CFE
:1008A0005E2C4A08D6004E084B07D7004E084F3E34
:0E08B00084000008D8005D21CE0A4D2C0800FF
:1008BE00831603138710831212150C309D04080043
:1008CE0083120313CF014F084C07D6004D080318AF
:1008DE00013ED700E92170080313CE0070080319FA
:1008EE00822C4A08D6004F084B07D7004E08D80076
:0808FE005D21CF0A6A2C0800FD
:10090600831603131208013EF000F1010318F10AE1
:1009160083124A08F400F50100220630F20070083E
:10092600F4007108F500720803199E2CF50CF40CFE
:10093600F513FF3E972C0430F1007408F00071089F
:100946000319A92CF00D7010FF3EA32C3030700552
:10095600F3007408F0007508F100F10CF00CF113C7
:10096600F10CF00CF11370089B000F309D05730815
:040976009D040800D4
:10097A0083120313B301B401B501B6012708A90014
:10098A002808AA0031082502F0003208031C013E9B
:10099A002602F1007008A7007108A80070082F0746
:1009AA00F20030080318013E7107F3007208AF0025
:1009BA007308B0008030043AF00080307306700289
:1009CA00031DE92C7208B03C0318EF2CB030AF00BD
:1009DA000430B00080303006F0008030FB3A7002FC
:1009EA00031DF92C50302F020318FF2C5030AF0092
:1009FA00FB30B0002F08B5003008B600B50DB60DB3
:100A0A00351029082702F0002A08031C013E280293
:100A1A00F1000630F4000030F50000227008B3003F
:100A2A007108B4008030F200803071067202031D32
:100A3A00202D7008783C0318262D7830B30000303A
:100A4A00B40080303406F0007F307002031D2F2D71
:100A5A00883033020318352D8830B300FF30B400D4
:100A6A0035082707AB0028080318013E3607AC00F3
:100A7A003308AB0734080318013EAC070030AC1B3F
:100A8A00FF30AD00AE002B08F1002C08F2002D0853
:100A9A00F3002E08F400F40CF30CF20CF10CF4132E
:100AAA00741BF4177108AB007208AC007308AD0030
:100ABA007408AE008030F000803074067002031DA6
:100ACA00702D7308003C031D702D7208043C031D31
:100ADA00702D7108B03C0318782DB030AB0004308B
:100AEA00AC00AD01AE0180302E06F00080307002FD
:100AFA00031D892D00302D02031D892D00302C0283
:100B0A00031D892D00302B0203188F2DAB01AC0178
:100B1A00AD01AE012B086C3EB900F7300318013E57
:060B2A002C07BA000800D0
:100B30008316031385017D308600083087008312F9
:100B4000850186018701063083169F00D0308B0017
:100B5000810183128C01013083168C0021308312B5
:100B6000900012149214D03083169200E321F622E2
:100B70000C30DF0009210130DF0009218B170B1633
:020B800008006B
:101000008A1198258A15C5010A30C4000B30C30027
:10101000C1010130CA000530CB000430CC000630DD
:10102000CD008A1167248A150230CA000130CB0036
:10103000D130CC000530CD008A1167248A150630E6
:10104000FB001330FC00AD30FD00FD0B2528FC0B30
:101050002528FB0B2528000000000130DF008A1145
:1010600009218A150130CA000230CB00F830CC00CB
:101070000530CD008A1167248A15CA018A11A1237F
:101080008A1570080313A500A6012508C900C80128
:101090000130CA008A11A1238A157008031348077A
:1010A000A50049080318013EA6000230CA008A11B3
:1010B000A1238A1570080313BD00C51D9E28C51104
:1010C00001304102031C6528C1038A11C1238A151E
:1010D0007008B1007108B200FF307106031D72285C
:1010E000FF307006031D762845168E283108F00063
:1010F0003208F100F00DF10D7010F00DF10D7010CF
:10110000F00DF10D70100A30F4000030F5008A1176
:1011100071208A157008B1007108B2000130CA0050
:101120000D30CB003108CC003208CD008A114024AC
:101130008A15451D9E288A11BD248A153030060562
:10114000F1007108BC0071083B060319C828BE28CD
:101150003C1EAD28BC1AAD28C0033C1AB228BC1EE8
:10116000B228C00AC6283C1AB828BC1EB828C0033A
:101170003C1EBD28BC1ABD28C00AC6283B08003A40
:101180000319A8283B08303A0319B3283C08BB00D0
:101190008619D0284518D028C518D0284514C5145C
:1011A00086190029451C0029C51800294510C514B9
:1011B000F6280130CA00250ACB008A111F248A159F
:1011C00083120313CA012608F000F1017008CB0056
:1011D0008A111F248A150029023083120313CA00C2
:1011E0003D08CB008A111F248A150029831203139E
:1011F00044080A3A0319D92844080B3A0319EC2881
:1012000083120313861D0529C51045181F294008A0
:101210003F07F1007108BF007108023C031C1B2945
:101220008030F0007F307002031D1829FE303F022D
:10123000031C1B291E294008C407BF01C0010A3036
:101240004402031825290A30C40044080B3C031843
:101250002B290B30C40044084306031967295D2974
:101260000230CA000230CB00EC30CC000530CD009B
:101270008A1167248A150230CA000D30CB00250878
:10128000CC002608CD008A1140248A156529023039
:10129000CA000230CB00E030CC000530CD008A110E
:1012A00067248A150230CA000D30CB003D08CC00FF
:1012B000CD018A1140248A15652944080A3A031988
:1012C000302944080B3A031947294408C300451E36
:1012D00074290230CA000130CB00C130CC00053087
:1012E000CD008A1167248A15451CD4294008003A8C
:1012F0000319D429CC2940082507F1002608031832
:10130000013EF2000030C01BFF30F2077108A5005B
:101310007208A600C00100307202031D91296430DA
:101320007102031897296430A5000030A600260832
:10133000013C031D9D292508903C0318A3299030EA
:10134000A5000130A6000230CA000D30CB002508F0
:10135000CC002608CD008A1140248A15D4294008E3
:101360003D07F1007108BD00C00101307102031892
:10137000BB290130BD003D08643C0318C12964301D
:10138000BD000230CA000D30CB003D08CC00CD01BD
:101390008A1140248A15D42944080A3A03197B2962
:1013A00044080B3A0319AF29061BED298A115F2463
:1013B0008A15FF30CA008A1183248A150B30FB007E
:1013C0002630FC005D30FD00FD0BE429FC0BE42918
:1013D000FB0BE429000000004515061DF229451A03
:1013E000F229F8294511C51AF829C5161930C10086
:1013F0004519FC298712FD298716451D092A3D0834
:10140000F000F00D70107008373ECA008A11832476
:101410008A1545191F2AC51E1F2AFF30CA008A11C6
:1014200083248A153208003C031D182A3108283C01
:10143000031C1F2A8A11AD238A158710C5125D2847
:02144000202A60
:100B820054346834653472346D346F3443342034F1
:100B92004534723472346F34723421342134003467
:100BA20048346F34743441346934723447347534A0
:0E0BB2006E342034563431342E343134003455
:100BC00041346934723446346C346F3477342034B1
:080BD0002034203425340034E8
:100BD800543465346D347034473475346E3420348D
:080BE8002034203443340034B2
:100BF0004134633474342034543465346D34703487
:080C0000203420344334003499
:100C08004D34733479347334743465346D3400344A
:02400E007A3BFB
:020000040000FA
:10420000000050005000000050003200FF00FF008E
:10421000FF00FF00FF00FF00FF00FF00FF00FF00A6
:10422000FF00FF00FF00FF00FF00FF00FF00FF0096
:10423000FF00FF00FF00FF00FF00FF00FF00FF0086
:10424000FF00FF00FF00FF00FF00FF00FF00FF0076
:10425000FF00FF00FF00FF00FF00FF00FF00FF0066
:10426000FF00FF00FF00FF00FF00FF00FF00FF0056
:10427000FF00FF00FF00FF00FF00FF00FF00FF0046
:10428000FF00FF00FF00FF00FF00FF00FF00FF0036
:10429000FF00FF00FF00FF00FF00FF00FF00FF0026
:1042A000FF00FF00FF00FF00FF00FF00FF00FF0016
:1042B000FF00FF00FF00FF00FF00FF00FF00FF0006
:1042C000FF00FF00FF00FF00FF00FF00FF00FF00F6
:1042D000FF00FF00FF00FF00FF00FF00FF00FF00E6
:1042E000FF00FF00FF00FF00FF00FF00FF00FF00D6
:1042F000FF00FF00FF00FF00FF00FF00FF00FF00C6
:10430000FF00FF00FF00FF00FF00FF00FF00FF00B5
:10431000FF00FF00FF00FF00FF00FF00FF00FF00A5
:10432000FF00FF00FF00FF00FF00FF00FF00FF0095
:10433000FF00FF00FF00FF00FF00FF00FF00FF0085
:10434000FF00FF00FF00FF00FF00FF00FF00FF0075
:10435000FF00FF00FF00FF00FF00FF00FF00FF0065
:10436000FF00FF00FF00FF00FF00FF00FF00FF0055
:10437000FF00FF00FF00FF00FF00FF00FF00FF0045
:10438000FF00FF00FF00FF00FF00FF00FF00FF0035
:10439000FF00FF00FF00FF00FF00FF00FF00FF0025
:1043A000FF00FF00FF00FF00FF00FF00FF00FF0015
:1043B000FF00FF00FF00FF00FF00FF00FF00FF0005
:1043C000FF00FF00FF00FF00FF00FF00FF00FF00F5
:1043D000FF00FF00FF00FF00FF00FF00FF00FF00E5
:1043E000FF00FF00FF00FF00FF00FF00FF00FF00D5
:1043F000FF00FF00FF00FF00FF00FF00FF00FF00C5
:00000001FF

